:100000000C9434000C9451000C9451000C94510049
:100010000C9451000C9451000C9451000C9451001C
:100020000C9451000C9451000C9451000C9451000C
:100030000C9451000C9451000C9451000C945100FC
:100040000C9451000C9451000C9451000C945100EC
:100050000C9451000C9451000C9451000C945100DC
:100060000C9451000C94510011241FBECFEFD4E02A
:10007000DEBFCDBF11E0A0E0B1E0E4E3F0E202C0FA
:1000800005900D92AA3BB107D9F723E0AAEBB1E0A6
:1000900001C01D92A830B207E1F70E94A30B0C9497
:1000A000FB0F0C940000CF93DF9300D000D000D062
:1000B000CDB7DEB78D839E83CB01BA012BE031E053
:1000C00040E050E00E94F00D69837A838B839C832B
:1000D0002D813E8189819A81280F391FF901808104
:1000E00026960FB6F894DEBF0FBECDBFDF91CF913D
:1000F00008959C018091CA01893008F088E002C00F
:10010000220F331F8A95E2F73093890020938800ED
:1001100008959C018091CA01893008F088E002C0EE
:10012000369527958A95E2F73093890020938800C9
:1001300008959C018091CA01893008F088E0829F6F
:10014000A001839F500D1124509389004093880093
:1001500008956091CA01693008F068E070E06F5F4F
:100160007F4F0E94C80D70938900609388000895A6
:10017000CF93C62FE091F302E80FF92FF11D808194
:10018000E091BD01F0E0EE0FFF1FEF5FFE4F019029
:10019000F081E02D90E0099580910B018C0FCF91BB
:1001A00008958091F30287BD80910B01860F089519
:1001B0009091F3029F5F9093F30280910B01860F61
:1001C00008950F931F93862F4091F30250E070E043
:1001D00060E08A019B010150110921093109452B79
:1001E000462B472B21F40AE011E020E030E0009399
:1001F000F30290910B01890F1F910F910895E091E7
:10020000F302E80FF92FF11D90819F5F9083809199
:100210000B01860F0895E091F302E80FF92FF11D0D
:1002200090819150908380910B01860F08950C94DA
:10023000B800E091F302E80FF92FF11D808187BD2E
:1002400080910B01860F0895FC01E60FF11D80815E
:100250008F5F808380910B01860F0895FC01E60F6C
:10026000F11D80818150808380910B01860F08955C
:10027000FC01E60FF11D8081880F808380910B01C6
:10028000860F0895FC01E60FF11D8081880F880F0D
:10029000808380910B01860F0895FC01E60FF11D0C
:1002A0008081880F880F880F808380910B01860FD3
:1002B00008959C01FC01E60FF11D8181811106C0AA
:1002C0008091F302280F311DF901608180910B01AB
:1002D000860F0895860F911DFC01818187FD02C064
:1002E000860F089580910B01FBCF9C01E62FF0E073
:1002F000CF010197309711F48FEF90E0820F931F99
:10030000DC018C9187FD04C0E20FF31F80818183A3
:1003100080910B01860F08959C01FC01E60FF11DF1
:100320008181280F311DD9018C91808380910B012F
:10033000860F089580910B01860F089580910A0120
:1003400087FF07C081E080930A0180910B01860F2F
:1003500008958FEFF8CF0C94B800FC01E60FF11D63
:10036000DF01119781819C91890F87BD80910B01DD
:10037000860F0895FC01E60FF11D8FEF80838183C6
:1003800082E0860F0895FC01E60FF11D808187FD54
:1003900003C081833197808380910B01860F08957C
:1003A000FC01E60FF11DDF0111971C921182809173
:1003B0000B01860F0895CF93DF93C62FD0910A01CA
:1003C000462F50E070E060E00E945300D7FF0CC061
:1003D000982F9370913089F490930A0180910B01CA
:1003E0008C0FDF91CF910895DD23A9F0982F9370A2
:1003F00091F48FEF80930A01F1CF9FEF82958F7078
:10040000899F802D1124882341F080930B0181E086
:100410008093DE02E3CF91E0F1CFD0930B01F7CFD1
:100420009091F3029F5F9093F30281E0860F08950D
:100430000F931F93862F4091F30250E070E060E02D
:100440008A019B010150110921093109452B462BD5
:10045000472B21F40AE011E020E030E00093F302A2
:100460008F5F1F910F910895E091F302E80FF92F2C
:10047000F11D90819F5F908381E0860F0895E09148
:10048000F302E80FF92FF11D90819150908381E0E4
:10049000860F0895CF93C62FE091F302E80FF92F4E
:1004A000F11D8081E091BD01F0E0EE0FFF1FEF5FD5
:1004B000FE4F0190F081E02D90E0099581E08C0FD6
:1004C000CF910895E091F302E80FF92FF11D80819B
:1004D00087BD81E0860F0895862FE0910901E33101
:1004E0004CF4EF5FE09309010E2E000CFF0BEC5073
:1004F000FD4F60838F5F08959C01862FE091090175
:10050000E7FD12C0A091F302A20FB32FB11D9C9181
:10051000992339F00E2E000CFF0BEC50FD4F80811B
:100520000895E150E09309018F5F0895CF93C62F9E
:10053000FC01E60FF11D818131979081E091BD01B1
:10054000F0E0EE0FFF1FEF5FFE4F0190F081E02D16
:10055000890F9927991F099580910B018C0FCF91D5
:1005600008950C94AD01FC01E60FF11D8181181670
:100570001CF480818F5F808380910B01860F08952A
:10058000FC01E60FF11D818187FF02C081E88083B5
:1005900080910B01860F08958F929F92AF92BF9228
:1005A000EF92FF920F931F93CF93DF9300D000D071
:1005B00000D0CDB7DEB78D839E83F62E062F10E0D8
:1005C000A8014F5F5F4F052E000C660B770B8D81E6
:1005D0009E810E945300E82EA8014E5F5F4F052EBA
:1005E000000C660B770B8D819E810E9453008F2C2F
:1005F000912CB12CA12CA5019401280F311D411D76
:10060000511D29833A834B835C83BA01A9018D81F3
:100610009E810E945300182FB501A4014E0D511D5B
:10062000611D711D8D819E810E945300082F69817B
:100630007A818B819C812BE031E040E050E00E9488
:10064000F00D69837A838B839C834D815E818981E0
:100650009A81480F591F100FFA01108383E08F0D04
:1006600026960FB6F894DEBF0FBECDBFDF91CF91B7
:100670001F910F91FF90EF90BF90AF909F908F9040
:100680000895CF93C62F462F50E04F5F5F4F052E42
:10069000000C660B770B0E9453008C0FCF910895CE
:1006A000FF920F931F93CF93DF93F82E092F162FEE
:1006B000C62FD0E0AE014E5F5F4F052E000C660BDB
:1006C000770B0E94530090E0B0E0A0E0AC01BD01C8
:1006D000410F511D611D711D8F2D902F0E945300E0
:1006E000811110C0AE014F5F5F4F052E000C660BED
:1006F000770B8F2D902FDF91CF911F910F91FF904E
:100700000C94530083E0810FDF91CF911F910F91E3
:10071000FF900895FF920F931F93CF93DF93F82ECE
:10072000092F162FC62FD0E0AE014E5F5F4F052E6A
:10073000000C660B770B0E94530090E0B0E0A0E045
:10074000AC01BD01410F511D611D711D8F2D902FF9
:100750000E945300882381F0AE014F5F5F4F052E4A
:10076000000C660B770B8F2D902FDF91CF911F918F
:100770000F91FF900C94530083E0810FDF91CF9194
:100780001F910F91FF90089583E0860F0895BF9207
:10079000CF92DF92EF92FF920F931F93CF93DF934D
:1007A000182FD92FC62FE62EF12CA7014F5F5F4FD0
:1007B000052E000C660B770B0E945300B82EA70184
:1007C0004E5F5F4F052E000C660B770B812F9D2F20
:1007D0000E945300CC2ED12CF12CE12CB701A601A4
:1007E000480F511D611D711D812F9D2F0E945300C7
:1007F000082FB701A6014B0D511D611D711D812FE1
:100800009D2F0E945300081761F086E08C0FDF9146
:10081000CF911F910F91FF90EF90DF90CF90BF90FD
:10082000089583E0F3CFCF93C62F462F50E04F5F5C
:100830005F4F052E000C660B770B0E945300E09172
:10084000BD01F0E0EE0FFF1FEF5FFE4F0190F08162
:10085000E02D90E0099583E08C0FCF910895CF9320
:10086000C62F462F50E04E5F5F4F052E000C660BE3
:10087000770B0E94530087BD83E08C0FCF910895C2
:10088000862F9091BC01911104C091E09093BC011E
:100890000895913019F41092BC010895923011F42A
:1008A00093E0F4CF9330A1F792E0F0CFCF93C62F2F
:1008B000E091F302E80FF92FF11D8081E091BD0175
:1008C000F0E0EE0FFF1FEF5FFE4F0190F081E02D93
:1008D00090E009958C2FCF910895E091F302E80FF5
:1008E000F92FF11D808187BD862F0895AC01862FD9
:1008F0002091BB0134E19091F302FA01E90FF11D5F
:100900006081662339F0211106C09F5F9093F30246
:10091000315089F70895213011F49150F7CF2230EA
:1009200011F4905FF3CF233099F79051EFCF9C01F2
:10093000862FE091F302F0E0D901AE0FBF1F9C912A
:10094000992331F03197E20FF31F20812223A9F080
:100950009091BC01911104C091E09093BC01089565
:10096000913019F41092BC010895923011F493E083
:10097000F4CF933019F492E0F0CF90830895262FAE
:100980008091BA018F5F8093BA016CE30E94BC0D25
:10099000911105C087B5809587BD822F08958091FC
:1009A0000B01280FFACF262F862F67E00E94BC0D7F
:1009B000943011F188F49230C9F09330D1F0913035
:1009C00081F0219A89E08093810088E08093CA01B8
:1009D00080910B01820F0895953089F4219A8CE063
:1009E00002C0219A89E080938100F2CF219A8AE0A7
:1009F000EACF219A8AE0F7CF219A8BE0F4CF2198B1
:100A0000E7CF9C01E62FF0E0DF011197A80FB91F97
:100A10008C9180958C933196E20FF31F80818095A5
:100A2000808380910B01860F08952F923F924F9201
:100A30005F926F927F928F929F92AF92BF92CF926E
:100A4000DF92EF92FF920F931F93CF93DF93CDB777
:100A5000DEB729970FB6F894DEBF0FBECDBF9C015D
:100A60004090D20181589F4F40FCE8C03093D101A3
:100A70002093D0019093CF018093CE01C090D001FC
:100A8000D090D101D6011C9160900001A601460DC5
:100A9000511DFA01508031972081A22EB12CDA012C
:100AA00011969C90A92DB0E03F97E080EE2DF0E0EC
:100AB000F987E887FA01F0886F2D70E0CA01419745
:100AC000FC0170800296FC010081FA019785818902
:100AD000E12FE150FF0BAF01AE16BF0609F4B7C01E
:100AE000E1E0F0E0211101C0E0E09F01312C212C78
:100AF000A417B50709F0B1C0FFEF2F1A3F0AE88528
:100B0000F985E417F50709F0AEC0FFEF2F1A3F0A89
:100B10006417750709F0ADC0EFEF2E1A3E0A711287
:100B2000AEC0FFEF2F1A3F0A0113AFC0EFEF2E1A2E
:100B30003E0A9113B0C0FFEF2F1A3F0A8113B1C0D4
:100B4000EFEF2E1A3E0A8090CE019090CF01E62C56
:100B5000E894E7F8E80CF92CF11C5110A8C0D60174
:100B600012965C90129711966C91611101C061E030
:100B700070E0C9010E94DC0D9B01770F440B550BFF
:100B800029833A834B835C83CA01B9010E94D50E45
:100B9000762EA72EB82E092F652D511001C061E0C9
:100BA00070E0C1010E94DC0DCB01770FAA0BBB0BDB
:100BB00089839A83AB83BC83BC01CD010E94D50E8F
:100BC0009B01AC017982AA82BB820C8369817A8104
:100BD0008B819C810E94380E69837A838B839C83EE
:100BE00069817A818B819C810E94A40ED7016C93CC
:100BF000D7018C91811710F011501C9381E0860D64
:100C00008F3608F09DC08093000129960FB6F894A6
:100C1000DEBF0FBECDBFDF91CF911F910F91FF902F
:100C2000EF90DF90CF90BF90AF909F908F907F908C
:100C30006F905F904F903F902F9008959093D101C7
:100C40008093D0013093CF012093CE0117CF30E0B5
:100C500020E022242394312C4BCF992009F44FCF4C
:100C60002F5F3F4F4CCFEE2009F452CF2F5F3F4F05
:100C70004FCFFF2009F453CF2F5F3F4F50CF772046
:100C800009F452CF2F5F3F4F4FCF002309F451CFCC
:100C90002F5F3F4F4ECF992309F450CF2F5F3F4F27
:100CA0004DCF882309F44FCF2F5F3F4F4CCF252CDA
:100CB000312C241635060CF040C0A20CB31CAA0E31
:100CC000BB1EE885F985AE0EBF1EA60EB71EA70C8B
:100CD000B11CA00EB11CA90EB11C8A0D9B2D911D3B
:100CE000B9016F5F7F4F0E94DC0D9B01770F440BB2
:100CF000550B29833A834B835C83CA01B9010E9457
:100D0000D50EB62E072F8F839D83D60113968C9117
:100D1000282F30E050E040E029833A834B835C8306
:100D2000CA01B9010E94D50E9B01AC01B9820A83A8
:100D30008F818B839D819C8349CFF701108258CF8F
:100D400081E1809300019092D1018092D001D092F4
:100D5000CF01C092CE0181E048264092D20155CF0A
:100D6000CF93DF93DC012C91E091CD01EF5FEF7029
:100D7000E093CD018E2F90E030E1E39FF00111244C
:100D8000EA0FFB1F01968F70992734E0880F991F97
:100D90003A95E1F7A80FB91F91E030E04FEFEF016E
:100DA00082818138E0F084E05181513808F082601E
:100DB00031965881513808F08160B90102C07595AB
:100DC00067958A95E2F760FF0CC011964C931197D6
:100DD0009F5F1196903119F7DF91CF91089580E0D0
:100DE000E3CF11961C921197F3CFCF93DF93FC01C1
:100DF000C091CB01BC0161587F4FC0FF05C0962F49
:100E0000872FBF01E92FF82F21E130E0DFEFDF016D
:100E1000319650968C915097817052969C91529732
:100E20009170890F11969C9111979170890F9196ED
:100E30009C9191979170890F9C919170890F9181EC
:100E40009170890F978D9170890F91A19170890F81
:100E5000DB01A20FB31F833049F09089492F417005
:100E600050E0840F952F911D039769F4DC932F5F59
:100E70003F4F2E36310559F681E0C827C093CB018C
:100E8000DF91CF9108951C92F2CF0F931F93CF93D0
:100E9000C62F8C01060F111DF801818118165CF414
:100EA0000E94C90F6AE070E00E94DC0D04971CF4F8
:100EB0008FEFF801808380910B018C0FCF911F91F0
:100EC0000F9108951F93CF93DF93162FEC01C60F58
:100ED000D11D898181110FC0FE01319780811816C3
:100EE00054F40E94C90F6AE070E00E94DC0D049780
:100EF00014F481E0888380910B01810FDF91CF9101
:100F00001F9108957F928F929F92AF92BF92CF923E
:100F1000DF92EF92FF920F931F93CF93DF93FC0129
:100F20009080C180EC01C158DF4F8091CC0180FDE1
:100F300005C09E2F8F2FFE01C92FD82F7F0180E182
:100F4000E80EF11C8F0101591F4F8AE0A82EB12C29
:100F5000D12C8824839491E8792E8889F701819394
:100F60007F018915D0F0319770822196E016F10645
:100F7000A1F78091CC0191E089278093CC01DF918A
:100F8000CF911F910F91FF90EF90DF90CF90BF9086
:100F9000AF909F908F907F900895882321F0319794
:100FA0008F5F8083E2CF8881882311F0891578F0E4
:100FB00088A1882311F0891550F08F85882311F0BE
:100FC000891528F08989882381F2891570F60E9495
:100FD000C90FB5010E94DC0D8C159D0534F6F70193
:100FE00031978082C2CF8091BC01811104C081E021
:100FF0008093BC010895813019F41092BC010895CA
:10100000823011F483E0F4CF8330A1F782E0F0CF97
:10101000CF939C01C62F9091BB018091F302911157
:1010200010C08F5F8093F302E091F302E20FF32F81
:10103000F11D8081811102C00E94F3078C2FCF9196
:101040000895913011F48150EDCF923011F4805F0A
:10105000E9CF933049F78051E5CFCF939C01C62F5C
:101060009091BB018091F302911110C08150809347
:10107000F302E091F302E20FF32FF11D8081811161
:1010800002C00E94F3078C2FCF910895913011F484
:101090008F5FEDCF923011F48051E9CF933049F753
:1010A000805FE5CF862F9091BB01911106C0909192
:1010B000F302905F9093F3020895913021F49091A0
:1010C000F3029051F7CF923021F49091F3029F5F99
:1010D000F1CF933089F79091F3029150EBCF862FA7
:1010E0009091BB01911106C09091F30290519093A1
:1010F000F3020895913021F49091F302905FF7CFBD
:10110000923021F49091F3029150F1CF933089F70E
:101110009091F3029F5FEBCFCF93C62FE091F30244
:10112000E80FF92FF11D8081811105C00E94F3079E
:101130008C2FCF9108951082FBCFFC01862F9091C8
:10114000BA019C3059F4E60FF11D908191836F3FF5
:1011500019F49DE09093BA018F5F089560910B019F
:10116000860F089580910B01860F08958F929F92AC
:10117000AF92BF92EF92FF920F931F93CF93DF93A3
:1011800000D000D000D0CDB7DEB78D839E83F62E81
:10119000062F10E0A8014F5F5F4F052E000C660B75
:1011A000770B8D819E810E945300E82EA8014E5F2F
:1011B0005F4F052E000C660B770B8D819E810E9480
:1011C0005300182F8F2C912CB12CA12CB501A40108
:1011D0004E0D511D611D711D8D819E810E94530018
:1011E000082FD501C401810F911DA11DB11DBC01A6
:1011F000CD012BE031E040E050E00E94F00D69832A
:101200007A838B839C83AD81BE81E981FA81AE0FA5
:10121000BF1F0C9383E08F0D26960FB6F894DEBFA8
:101220000FBECDBFDF91CF911F910F91FF90EF9037
:10123000BF90AF909F908F900895EF92FF920F9381
:101240001F93CF93DF9300D000D000D0CDB7DEB78F
:101250008D839E83F62E062F10E0A8014E5F5F4F10
:10126000052E000C660B770B8D819E810E9453002A
:1012700090E0B0E0A0E09C01AD012F0D311D411DBB
:10128000511D29833A834B835C83BA01A9018D8167
:101290009E810E945300EE24EA94E80E69817A81CF
:1012A0008B819C812BE031E040E050E00E94F00D0A
:1012B00069837A838B839C83E981FA814D815E8186
:1012C000E40FF51FE082E11017C0A8014F5F5F4FE8
:1012D000052E000C660B770B8D819E8126960FB62E
:1012E000F894DEBF0FBECDBFDF91CF911F910F915C
:1012F000FF90EF900C94530083E08F0D26960FB66D
:10130000F894DEBF0FBECDBFDF91CF911F910F913B
:10131000FF90EF9008958F929F92AF92BF92EF92BD
:10132000FF920F931F93CF93DF9300D000D000D094
:10133000CDB7DEB78D839E83F62E062F10E0A80171
:101340004F5F5F4F052E000C660B770B8D819E81E2
:101350000E945300E82EA8014E5F5F4F052E000C3F
:10136000660B770B8D819E810E9453008F2C912CF0
:10137000B12CA12CA5019401280F311D411D511D37
:1013800029833A834B835C83BA01A9018D819E81B5
:101390000E945300182FB501A4014E0D511D611D6F
:1013A000711D8D819E810E945300082F69817A8171
:1013B0008B819C812BE031E040E050E00E94F00DF9
:1013C00069837A838B839C834D815E8189819A8135
:1013D000480F591F101BFA01108383E08F0D2696CA
:1013E0000FB6F894DEBF0FBECDBFDF91CF911F9136
:1013F0000F91FF90EF90BF90AF909F908F900895C6
:10140000ECE7F0E080818F77808380818064808347
:10141000808180628083EAE7F0E08081846080835D
:101420008081826080838081816080838081806808
:10143000808317B818B80895982F80917A0087FF95
:1014400025C0983018F580917C00887F892B809387
:101450007C0080917A00806180937A0080917A008C
:10146000806480937A0080917A0086FDFCCF809121
:10147000790080917A00806480937A0080E197E21D
:1014800020917A0026FF04C00197D1F780E00895EB
:1014900080917A00806180937A008091790008952C
:1014A000CF93C62F83E00E941C0A8093F3028091A1
:1014B0000B018C0FCF910895CF93C62F82E00E942D
:1014C0001C0A8093F30280910B018C0FCF91089539
:1014D00082E00E941C0A90910B01890F08951F93CE
:1014E000CF93DF93162FC091F302CF3F39F0C80F8F
:1014F000D92FD11D83E00E941C0A888380910B01A3
:10150000810FDF91CF911F9108950F931F93CF9378
:10151000C62F8C01060F111D82E00E941C0AF801E3
:10152000808380910B018C0FCF911F910F910895B3
:101530000F931F93CF93C62F8C01060F111D83E0CD
:101540000E941C0AF801808380910B018C0FCF91BF
:101550001F910F9108951F93CF93DF93162FC09182
:10156000F302CF3F39F0C80FD92FD11D83E00E947D
:101570001C0A888381E0810FDF91CF911F9108952C
:101580000F931F93CF93DF9300D000D000D0CDB73F
:10159000DEB78C016D838091BA018D3079F5809131
:1015A000BE018F5F8093BE0183E00E941C0A8E8380
:1015B0002091BE013D81832F90E0B0E0A0E0AC011E
:1015C000BD01420F511D611D711DCB01BA012BE000
:1015D00031E040E050E00E94F00DFB01E00FF11F10
:1015E0005E8150838D8126960FB6F894DEBF0FBEC4
:1015F000CDBFDF91CF911F910F91089580910B0185
:101600006D81680F6D83EECF1F93CF93DF93EC0155
:10161000162F83E00E941C0A83709091F3028111BF
:1016200010C09F5F9093F3028091F302C80FD11D09
:10163000888187BD80910B01810FDF91CF911F9130
:101640000895813011F49150EDCF823011F4905F04
:10165000E9CF9051E7CFFF920F931F93CF93DF9382
:101660008C01F62EC091F302D0E02196C80FD91F4D
:1016700083E00E941C0A88838091F302080F111DE9
:10168000F8018081E091BD01F0E0EE0FFF1FEF5FF8
:10169000FE4F0190F081E02D90E0099580910B01C3
:1016A0008F0DDF91CF911F910F91FF9008951F93A0
:1016B000CF93DF93EC0110E08881181720F0DF91C1
:1016C000CF911F91089583E00E941C0AFE01E80F4C
:1016D000F11D8F709081892780831F5FEDCF0F935D
:1016E0001F93CF93DF93EC018C0101501F4F83E0D8
:1016F0000E941C0A8993C017D107C9F7DF91CF91C7
:101700001F910F9108950F931F93CF93DF9300E1E3
:1017100010E090E080E0EC01CC0FDD1F83E00E9440
:101720001C0A9E012827C901E7ECF0E03197F1F788
:1017300000C000000150110971F7DF91CF911F9196
:101740000F910C94CE0FCDB7DEB7CA5AD1090FB6A0
:10175000F894DEBF0FBECDBF0E94830B84E3E0E1AF
:10176000F1E0DE01119601900D928A95E1F780E19A
:10177000E4E4F1E0DE01AF57BF4F01900D928A958E
:10178000E1F782E1E4E5F1E0DE01A15ABF4F01900B
:101790000D928A95E1F78CE0E6E6F1E0DE01A156D4
:1017A000BF4F01900D928A95E1F786E1E2E7F1E003
:1017B000DE01D59601900D928A95E1F784E1E8E883
:1017C000F1E0DE01A55BBF4F01900D928A95E1F734
:1017D0008EE0ECE9F1E0DE01AF56BF4F01900D92D3
:1017E0008A95E1F780E1EAEAF1E0DE01AF58BF4F08
:1017F00001900D928A95E1F70E94000A83ED91E035
:101800000E946F0B509A519A529A569A219A80E4EC
:10181000809380008AE08093810083E484BD85B555
:101820008D6085BD5898599A5A981092C30181E0ED
:1018300080930B0180930A011092BC011092BB01AE
:101840001AE0B7E0BB2E0BE086E0A82E99E0F92E57
:101850002CE0C22E34E0E32E48E0D42E80E00E943B
:101860001C0A8093C20181E00E941C0A8093C0017F
:1018700082E00E941C0A8093C1019091C0019111E5
:1018800004C09091C3019093C001811104C0809164
:10189000C3018093C1018091C101982F93709093EF
:1018A000BD016091C201E62FE295E695E770E093F5
:1018B000C901982F9F719F5F9093C701829586956C
:1018C00087708093C8018091BE018F5F8093BE01B5
:1018D00090E06F7170E06F5F7F4F0E94DC0D892B8D
:1018E00009F05DC02091C301A22FB0E0AD52BE4F00
:1018F0008C91E150E73038F4F0E0E350F04F809302
:10190000C4010C940F0E8093C4016AE10E94BC0DC7
:10191000E92FF0E0EE0FFF1F81E090E08C0F9D1F9C
:10192000E80FF91F0190F081E02D622F83ED91E027
:1019300009958093C30180910A0180930B0127C010
:101940008770E82FF0E0EE0FFF1F81E890E08C0F2A
:101950009D1FE80FF91F0190F081E02D622F83EDAC
:1019600091E009958093C30190910A0190930B0136
:10197000E82FF0E0ED52FE4F80818F3F41F497FF5A
:1019800004C081E080930A0102C09111FBCF8091D5
:10199000DE0281118CC080910A0180930B0180913D
:1019A000BE016091C7010E94BC0D911111C0E09170
:1019B000C801F0E0EE0FFF1F81E790E08C0F9D1F44
:1019C000E80FF91F0190F081E02D83ED91E009957A
:1019D000E091C001E770E093C601E150E73008F004
:1019E00089C0F0E0EC5FFF4E0C940F0E6F2D0E944B
:1019F000BC0DE92FF0E0EE0FFF1F8FE590E08ECFDA
:101A00006A2D0E94BC0DE92FF0E0EE0FFF1F8FE959
:101A100090E084CF602F0E94BC0DE92FF0E0EE0F24
:101A2000FF1F81E090E08C0F9D1FE80FF91F04A8B5
:101A3000F5A9E02D7ACF87BD8091C30190910A016D
:101A4000890F8093C301A3CF6B2D0E94BC0DE92F9A
:101A5000F0E0EE0FFF1F81E990E060CF612F0E9460
:101A6000BC0DE92FF0E0EE0FFF1F8BE490E08C0F30
:101A70009D1FE80FF91F0190F081E02D622F83ED8B
:101A800091E009958093C3019091BC01911102C02E
:101A90008F5FD7CF913011F48150D3CF923011F4B2
:101AA000805FCFCF933009F072CF8051CACF1092B0
:101AB000DE0275CFF8945A9A7894E091C001E295CD
:101AC000EF70E093C501E150EF30F0F4F0E0E55F36
:101AD000FF4E219A0C940F0E589A5998EECF5898B1
:101AE000599AEBCF8BB187608BB9E7CF8091C30157
:101AF00080FF02C05A98E1CF5A9ADFCF8BB1836042
:101B0000F3CF8BB18B25F0CF2198A8CEF092810036
:101B1000D092CA01A3CEF0928100E092CA019ECE7B
:101B2000F092810082E08093CA0198CEF092810009
:101B300095CE10938100ECCF10938100EECF1093DF
:101B40008100F0CF1093810089CE00938100E0CF17
:101B500000938100E2CF00938100E4CF00938100E5
:101B60007DCEC0928100D4CFC0928100A092CA01E4
:101B700075CEC0928100D1CF991B79E004C0991F26
:101B8000961708F0961B881F7A95C9F780950895D7
:101B9000AA1BBB1B51E107C0AA1FBB1FA617B70793
:101BA00010F0A61BB70B881F991F5A95A9F78095AF
:101BB0009095BC01CD01089597FB072E16F4009473
:101BC00007D077FD09D00E94C80D07FC05D03EF470
:101BD000909581959F4F0895709561957F4F0895D9
:101BE000052E97FB1EF400940E94070E57FD07D0A8
:101BF0000E94150E07FC03D04EF40C94070E50956E
:101C00004095309521953F4F4F4F5F4F08959095E8
:101C10008095709561957F4F8F4F9F4F0895EE0F80
:101C2000FF1F0590F491E02D0994A1E21A2EAA1B42
:101C3000BB1BFD010DC0AA1FBB1FEE1FFF1FA2177C
:101C4000B307E407F50720F0A21BB30BE40BF50B79
:101C5000661F771F881F991F1A9469F76095709502
:101C6000809590959B01AC01BD01CF01089550581E
:101C7000BB27AA270E944F0E0C94270F0E94190F12
:101C800038F00E94200F20F039F49F3F19F426F419
:101C90000C94160F0EF4E095E7FB0C94100FE92F4F
:101CA0000E94380F58F3BA17620773078407950725
:101CB00020F079F4A6F50C945A0F0EF4E0950B2E53
:101CC000BA2FA02D0B01B90190010C01CA01A0018E
:101CD0001124FF27591B99F0593F50F4503E68F1E9
:101CE0001A16F040A22F232F342F4427585FF3CF2A
:101CF000469537952795A795F0405395C9F77EF4FB
:101D00001F16BA0B620B730B840BBAF09150A1F043
:101D1000FF0FBB1F661F771F881FC2F70EC0BA0FC9
:101D2000621F731F841F48F4879577956795B79551
:101D3000F7959E3F08F0B0CF9395880F08F099274C
:101D4000EE0F9795879508950E94400F88F09F5752
:101D500098F0B92F9927B751B0F0E1F0660F771FCF
:101D6000881F991F1AF0BA95C9F714C0B13091F0C5
:101D70000E945A0FB1E008950C945A0F672F782FE4
:101D80008827B85F39F0B93FCCF38695779567958A
:101D9000B395D9F73EF490958095709561957F4FF6
:101DA0008F4F9F4F0895E89409C097FB3EF490959C
:101DB0008095709561957F4F8F4F9F4F9923A9F024
:101DC000F92F96E9BB279395F695879577956795B3
:101DD000B795F111F8CFFAF4BB0F11F460FF1BC0F7
:101DE0006F5F7F4F8F4F9F4F16C0882311F096E98A
:101DF00011C0772321F09EE8872F762F05C0662338
:101E000071F096E8862F70E060E02AF09A95660FF0
:101E1000771F881FDAF7880F9695879597F90895A9
:101E200097F99F6780E870E060E008959FEF80EC8D
:101E3000089500240A941616170618060906089530
:101E400000240A9412161306140605060895092E96
:101E50000394000C11F4882352F0BB0F40F4BF2B05
:101E600011F460FF04C06F5F7F4F8F4F9F4F089545
:101E700057FD9058440F551F59F05F3F71F047953B
:101E8000880F97FB991F61F09F3F79F08795089520
:101E9000121613061406551FF2CF4695F1DF08C03F
:101EA000161617061806991FF1CF8695710561055C
:101EB00008940895E894BB2766277727CB0197F904
:101EC0000895CF92DF92EF92FF92CF93DF93CDB739
:101ED000DEB72A970FB6F894DEBF0FBECDBF898755
:101EE0009A87A985BA852D913D914D915C91298361
:101EF0003A834B835C83232B242B252B41F424E250
:101F000039ED4BE557E029833A834B835C83698144
:101F10007A818B819C812DE133EF41E050E00E947A
:101F2000F00D69017A01A7EAB1E49B01AC010E94BE
:101F3000D90F69837A838B839C83ACEEB4EFA701BE
:101F400096010E94E70F9B01AC0189819A81AB81C8
:101F5000BC81820F931FA41FB51FB7FF03C0019759
:101F6000A109B048E985FA8580839183A283B38370
:101F70009F772A960FB6F894DEBF0FBECDBFDF91D4
:101F8000CF91FF90EF90DF90CF9008950E94610F66
:101F900008958CE091E00E94610F0895B0E0A0E008
:101FA00080930C0190930D01A0930E01B0930F014B
:101FB00008950E94EC0FA59F900DB49F900DA49FD3
:101FC000800D911D11240895B7FF0C94D90F0E9424
:101FD000D90F821B930B0895A29FB001B39FC0013C
:101FE000A39F700D811D1124911DB29F700D811D45
:101FF0001124911D0895F894FFCFA00CF60C000D4C
:102000000A0D1B0D240D2E0D5A0D6C0D6F0D720D4A
:10201000760D7E0D810D860D8B0D900D960D990D13
:102020009C0D9F0DA20DA50DA80DAB0DAE0DB10D14
:04203000B40DB90D25
:1020340011790089009900A900FF01010100000045
:10204400B800D100D800E100FF000B01500A5C0A7F
:10205400680A6F0A1701190124012E01380142018F
:102064004D0159016A0175018C01850A980A9A018A
:102074009E01B208850A980AAB01AD01BA01C301F9
:10208400D001DB011002180234023F024A0262024C
:10209400AB0A6C027C029602B102B3024507C0028D
:1020A4006207B608CC028B09410350038A031D0959
:1020B400C403C70313042F04400456046D04080822
:1020C4002D0852086F0876048C0897049D08C00AEE
:1020D400BF04D3040105040B2B0B570B8207150512
:0A20E400B00615058207F506570B3C
:00000001FF
