:100000000C9434000C9451000C9451000C94510049
:100010000C9451000C9451000C9451000C9451001C
:100020000C9451000C9451000C9451000C9451000C
:100030000C9451000C9451000C9451000C945100FC
:100040000C9451000C9451000C9451000C945100EC
:100050000C9451000C9451000C9451000C945100DC
:100060000C9451000C94510011241FBECFEFD4E02A
:10007000DEBFCDBF11E0A0E0B1E0EEE0F9E102C0EB
:1000800005900D92A83BB107D9F723E0A8EBB1E0AA
:1000900001C01D92A830B207E1F70E9447090C94F5
:1000A000680C0C9400002091E50202C0880F991F93
:1000B0002A95E2F790938900809388000895209113
:1000C000E50202C0969587952A95E2F790938900FC
:1000D0008093880008954091E502489F9001499FD0
:1000E000300D112430938900209388000895609189
:1000F000E50270E06F5F7F4F0E945F0B7093890095
:10010000609388000895CF93C62FE091E602E80F30
:10011000F92FF11D8081E0910603F0E0EE0FFF1F43
:10012000EF5FFE4F0190F081E02D90E00995809106
:10013000E9028C0FCF9108958091E60287BD8091EE
:10014000E902860F08959091E6029F5F9093E60280
:100150008091E902860F08959091E6029150909364
:10016000E6028091E902860F0895E091E602E80F29
:10017000F92FF11D90819F5F90838091E902860F96
:100180000895E091E602E80FF92FF11D908191505A
:1001900090838091E902860F08950C948300E0918A
:1001A000E602E80FF92FF11D808187BD8091E902F9
:1001B000860F0895FC01E60FF11D80818F5F80831B
:1001C0008091E902860F0895FC01E60FF11D808100
:1001D000815080838091E902860F0895FC01E60F2B
:1001E000F11D8081880F80838091E902860F089538
:1001F000FC01E60FF11D8081880F880F80838091BC
:10020000E902860F0895FC01E60FF11D8081880F39
:10021000880F880F80838091E902860F08959C01E2
:10022000FC01E60FF11D8181811106C08091E6027B
:10023000280F311DF90160818091E902860F089530
:10024000262F30E0FC01E20FF31F818187FD08C0FB
:10025000820F932F911D6BE071E00E94730B089544
:100260008091E902860F08959C01E62FF0E0CF010E
:100270000197309711F48FEF90E0820F931FDC010C
:100280008C9187FD04C0E20FF31F808181838091F0
:10029000E902860F08959C01FC01E60FF11D8181A2
:1002A000280F311DD9018C9180838091E902860F3E
:1002B00008958091E902860F08958091EC0287FFEE
:1002C00007C081E08093EC028091E902860F0895D7
:1002D0008FEFF8CF0C948300FC01E60FF11DDF01D6
:1002E000119781819C91890F87BD8091E902860FCA
:1002F0000895FC01E60FF11D8FEF8083818382E07A
:10030000860F0895FC01E60FF11D808187FD03C073
:100310008183319780838091E902860F0895FC01E3
:10032000E60FF11DDF0111971C9211828091E90205
:10033000860F0895362F4091EC02860F911DFC0127
:10034000208147FF0CC0822F63E00E94530B913045
:1003500091F49093EC028091E902830F089542306A
:1003600054F0822F63E00E94530B911104C08FEF71
:100370008093EC02F0CF4203C001112424E0959554
:1003800087952A95E1F78093E902E5CF9091E602FF
:100390009F5F9093E60281E0860F08959091E602B8
:1003A00091509093E60281E0860F0895E091E60275
:1003B000E80FF92FF11D90819F5F908381E0860FF8
:1003C0000895E091E602E80FF92FF11D9081915018
:1003D000908381E0860F0895CF93C62FE091E602C7
:1003E000E80FF92FF11D8081E0910603F0E0EE0F98
:1003F000FF1FEF5FFE4F0190F081E02D90E0099527
:1004000081E08C0FCF910895E091E602E80FF92F7B
:10041000F11D808187BD81E0860F0895862F909120
:10042000CC029F5F943150F49093CC02E091CC02C7
:10043000F0E0EF50FD4F80838F5F08951092CC0263
:10044000F5CF2091CC02E091E602E80FF92FF11DE3
:100450008081882359F0E22FF0E0EF50FD4F80813A
:100460008150990B21502093CC02089580E0FACF5F
:10047000CF93C62FFC01E60FF11D8181319790814A
:10048000E0910603F0E0EE0FFF1FEF5FFE4F0190DB
:10049000F081E02D890F9927991F09958091E90234
:1004A0008C0FCF9108950C946C01FC01E60FF11DA7
:1004B000818118161CF480818F5F80838091E9020E
:1004C000860F0895FC01E60FF11D818187FF02C0B0
:1004D00081E880838091E902860F0895FF920F934F
:1004E0001F93CF93DF939C01462FE62FF0E08C0102
:1004F0000E0F1F1FD80111968C918E0F9F2F911DEB
:10050000CBE0D1E0BE010E94730BD901A80FB91F47
:10051000FC90D80112968C918E0F9F2F911DBE01D9
:100520000E94730B280F391FF901F08283E0840FBA
:10053000DF91CF911F910F91FF900895EF92FF925D
:100540000F931F93CF93DF939C01462FC62FD0E0CC
:100550007C01EC0EFD1ED70112968C918C0F9D2F05
:10056000911D0BE011E0B8010E94730BF901E80F37
:10057000F11DD70111968C918C0F9D2F911DB80103
:100580000E94730B280F311D8081D9019C91890F26
:10059000808383E0840FDF91CF911F910F91FF90B3
:1005A000EF900895EF92FF920F931F93CF93DF93F5
:1005B0009C01462FC62FD0E07C01EC0EFD1ED7011A
:1005C00012968C918C0F9D2F911D0BE011E0B801BC
:1005D0000E94730BF901E80FF11DD70111968C9160
:1005E0008C0F9D2F911DB8010E94730B280F311D98
:1005F0008081D9019C91891B808383E0840FDF91E6
:10060000CF911F910F91FF90EF90089570E0860FAA
:10061000971FFC018181860F972F911D6BE071E080
:100620000E94730B0895CF93DF93FC01262F462F72
:1006300050E0EC01C40FD51F8A81840F952F911DC6
:100640006BE071E00E94730BE80FF91F808181114C
:1006500004C08981DF91CF91089583E0820FFACFA2
:10066000FC01E60FF11D81810895CF93DF93FC011A
:10067000262F462F50E0EC01C40FD51F8A81840F2E
:10068000952F911D6BE071E00E94730BE80FF11D37
:1006900090819150908383E0820F911101C08981F4
:1006A000DF91CF91089583E0860F0895CF92DF9276
:1006B000EF92FF920F931F93CF93DF93FC01262FAE
:1006C000062F10E06C01C00ED11ED60112968C913F
:1006D000800F912F911D3BE0E32EFF24F394B7018F
:1006E0000E94730BEF01C80FD91FD60111968C9190
:1006F000800F912F911DB7010E94730BE80FF91F16
:1007000098818081981759F086E0820FDF91CF9110
:100710001F910F91FF90EF90DF90CF90089583E0AD
:10072000F4CFCF93C62F860F911DFC018181E091FC
:100730000603F0E0EE0FFF1FEF5FFE4F0190F08128
:10074000E02D90E0099583E08C0FCF910895860FFE
:10075000911DFC01828187BD83E0860F0895862F5D
:100760009091CD02911104C091E09093CD02089533
:10077000913019F41092CD020895923011F493E063
:10078000F4CF9330A1F792E0F0CFCF93C62FE09152
:10079000E602E80FF92FF11D8081E0910603F0E0F9
:1007A000EE0FFF1FEF5FFE4F0190F081E02D90E014
:1007B00009958C2FCF910895E091E602E80FF92F6B
:1007C000F11D808187BD862F08950F931F93CF93CE
:1007D000DF93EC01E62F4091D002F4E10BE011E051
:1007E0009091E602292F30E0DE01A20FB31F8C9119
:1007F0008823A9F0411104C09F5F9093E6020DC0C9
:10080000413011F49150F9CF423079F4C90140964A
:10081000B8010E94730B8093E602F15009F78E2F06
:10082000DF91CF911F910F9108954330B1F790510F
:10083000E4CF9C01862FE091E602F0E0D901AE0FF3
:10084000BF1F9C91992331F03197E20FF31F208154
:100850002223A9F09091CD02911104C091E09093D0
:10086000CD020895913019F41092CD02089592307E
:1008700011F493E0F4CF933019F492E0F0CF908329
:100880000895262F809105038F5F809305036CE305
:100890000E94530B911105C087B5809587BD822FAB
:1008A00008958091E902280FFACF262F862F67E05E
:1008B0000E94530B943011F188F49230C9F09330B8
:1008C000D1F0913081F0219A89E08093810088E015
:1008D0008093E5028091E902820F0895953089F4B2
:1008E000219A8CE002C0219A89E080938100F2CFA6
:1008F000219A8AE0EACF219A8AE0F7CF219A8BE009
:10090000F4CF2198E7CF9C01E62FF0E0DF011197AB
:10091000A80FB91F8C9180958C933196E20FF31F2D
:100920008081809580838091E902860F08952F92BF
:100930003F924F925F926F927F928F929F92AF926F
:10094000BF92CF92DF92EF92FF920F931F93CF93BC
:10095000DF939C015090BF0181589F4F50FC8BC08A
:100960003093BE012093BD019093BC018093BB01E5
:100970000091BD011091BE01D8019C90911002C060
:100980009924939480900001C82CD12CE801CC0DBF
:10099000DD1D4880FE0131972081A22EB12C898176
:1009A000282E312CE92DE150FF0BAF01AE16BF060A
:1009B00009F46AC061E090E0211101C060E0262FD7
:1009C000392FF0E0E0E02416350609F062C03196D8
:1009D000CE014097DC018C918417150609F05FC0A9
:1009E000319688898417150609F05FC03196CE01CB
:1009F0004197DC018C9198125EC03196CE010F9721
:100A0000DC018C9198125DC031968F8598125FC081
:100A100031968989981261C031966090BB017090BF
:100A2000BC01882D6FE70E94530B7301E90EF11C86
:100A3000411059C0D80112964C91129711966C91A1
:100A4000611101C061E070E0C9010E94730B262FA3
:100A5000411101C041E0642F70E0CF010E94730B8F
:100A6000260FF7012083D7018C91891508F487C0E0
:100A70009A949C9284C09093BE018093BD01309360
:100A8000BC012093BB0174CF30E020E0E1E0F0E056
:100A90009ACF882309F49CCF2F5F3F4F99CF8823AB
:100AA00009F49FCF2F5F3F4F9CCF882309F49FCF3E
:100AB0002F5F3F4F9CCF882309F4A0CF2F5F3F4F7C
:100AC0009DCF882309F4A1CF2F5F3F4F9ECF88236E
:100AD00009F49FCF2F5F3F4F9CCF882309F49DCF10
:100AE0002F5F3F4F9ACF842D90E0841795070CF02D
:100AF00044C0FE0170974081A80EB91EA20CB31C21
:100B0000A40EB11CC6014096EBE0F1E0BF010E94CB
:100B1000730BD801A80FB91FAC91A5014A0F511D45
:100B2000CE014197DC01AC90A40EB52EB11C2F97DD
:100B30008881A80EB11CC6010F96BF010E94730BDD
:100B4000D801A80FB91F8C91A80EB11CC6014196FF
:100B5000BF010E94730BF801E80FF91F80818A0D15
:100B60009B2D911DB9016F5F7F4F0E94730BF801A0
:100B70008381860FD7018C9376CFF701108281E0B5
:100B8000880D8F36A8F480930001DF91CF911F91DB
:100B90000F91FF90EF90DF90CF90BF90AF909F901C
:100BA0008F907F906F905F904F903F902F9008951F
:100BB00081E1809300017092BE016092BD011093AB
:100BC000BC010093BB0181E058265092BF01DDCFEC
:100BD000CF93DF93DC012C91E091BA01EF5FEF70CE
:100BE000E093BA018E2F90E030E1E39FF0011124F1
:100BF000EA0FFB1F01968F70992734E0880F991F29
:100C00003A95E1F7A80FB91F91E030E04FEFEF01FF
:100C100082818138E0F084E05181513808F08260AF
:100C200031965881513808F08160B90102C075953C
:100C300067958A95E2F760FF0CC011964C93119767
:100C40009F5F1196903119F7DF91CF91089580E061
:100C5000E3CF11961C921197F3CFCF93DF93FC0152
:100C6000C091B801BC0161587F4FC0FF05C0962FED
:100C7000872FBF01E92FF82F21E130E0DFEFDF01FF
:100C8000319650968C915097817052969C915297C4
:100C90009170890F11969C9111979170890F91967F
:100CA0009C9191979170890F9C919170890F91817E
:100CB0009170890F978D9170890F91A19170890F13
:100CC000DB01A20FB31F833049F09089492F417097
:100CD00050E0840F952F911D039769F4DC932F5FEB
:100CE0003F4F2E36310559F681E0C827C093B80131
:100CF000DF91CF9108951C92F2CF0F931F93CF9362
:100D0000C62F8C01060F111DF801818118165CF4A5
:100D10000E94F50B6AE070E00E94730B04971CF4CC
:100D20008FEFF80180838091E9028C0FCF911F91A2
:100D30000F9108951F93CF93DF93162FEC01C60FE9
:100D4000D11DFE013197808181110DC08981181656
:100D500054F40E94F50B6AE070E00E94730B049754
:100D600014F481E088838091E902810FDF91CF91B3
:100D70001F9108957F928F929F92AF92BF92CF92D0
:100D8000DF92EF92FF920F931F93CF93DF93FC01BB
:100D90009080C180EC01C158DF4F8091B90180FD86
:100DA00005C09E2F8F2FFE01C92FD82F7F0180E114
:100DB000E80EF11C8F0101591F4F8AE0A82EB12CBB
:100DC000D12C8824839491E8792E8889F701819326
:100DD0007F018915D0F0319770822196E016F106D7
:100DE000A1F78091B90191E089278093B901DF9142
:100DF000CF911F910F91FF90EF90DF90CF90BF9018
:100E0000AF909F908F907F900895882321F0319725
:100E10008F5F8083E2CF8881882311F0891578F075
:100E200088A1882311F0891550F08F85882311F04F
:100E3000891528F08989882381F2891570F60E9426
:100E4000F50BB5010E94730B8C159D0534F6F70167
:100E500031978082C2CF8091CD02811104C081E0A0
:100E60008093CD020895813019F41092CD02089537
:100E7000823011F483E0F4CF8330A1F782E0F0CF29
:100E8000CF939C01C62F9091D0028091E6029111E0
:100E900010C08F5F8093E602E091E602E20FF32F2D
:100EA000F11D8081811102C00E942B078C2FCF91F0
:100EB0000895913011F48150EDCF923039F490E0E3
:100EC00040966BE071E00E94730BE4CF933021F702
:100ED0008051E0CFCF939C01C62F9091D00280919A
:100EE000E602911110C081508093E602E091E60283
:100EF000E20FF32FF11D8081811102C00E942B07A8
:100F00008C2FCF910895913011F48F5FEDCF9230F7
:100F100011F48051E9CF933049F790E040966BE0AF
:100F200071E00E94730BE0CF262F8091D0028111D7
:100F30000CC08091E60290E040966BE071E00E9468
:100F4000730B8093E602822F0895813021F4809103
:100F5000E6028051F6CF823021F48091E6028F5F65
:100F6000F0CF833081F78091E6028150EACF262FBF
:100F70008091D002811107C08091E6028051809358
:100F8000E602822F0895813049F48091E60290E0D4
:100F900040966BE071E00E94730BF1CF823021F438
:100FA0008091E6028150EBCF833059F78091E602C1
:100FB0008F5FE5CFCF93C62FE091E602E80FF92FC0
:100FC000F11D8081811105C00E942B078C2FCF91CC
:100FD00008951082FBCFFC01862F909105039C3071
:100FE00059F4E60FF11D908191836F3F19F49DE054
:100FF000909305038F5F08956091E902860F08952D
:101000008091E902860F0895ECE7F0E080818F7708
:101010008083808180648083808180628083EAE72E
:10102000F0E080818460808380818068808317B84D
:1010300018B8089590917C00987F90937C009091CF
:101040007C008770892B80937C0080917A0080647B
:1010500080937A0080917A0084FFFCCF80917900A0
:101060000895CF93C62F83E00E941A088093E6026A
:101070008091E9028C0FCF910895CF93C62F82E023
:101080000E941A088093E6028091E9028C0FCF91AA
:10109000089582E00E941A089091E902890F08954C
:1010A0000F931F93CF93C62F0091E602080F192FBD
:1010B000111D83E00E941A08F80180838091E902E3
:1010C0008C0FCF911F910F9108950F931F93CF9382
:1010D000C62F8C01060F111D82E00E941A08F8012C
:1010E00080838091E9028C0FCF911F910F91089519
:1010F0000F931F93CF93C62F8C01060F111D83E012
:101100000E941A08F80180838091E9028C0FCF9128
:101110001F910F9108950F931F93CF93C62F0091A6
:10112000E602080F192F111D83E00E941A08F8012A
:10113000808381E08C0FCF911F910F9108950F93C1
:101140001F93CF938C01C62F809105038D30D1F46E
:101150008091ED02860F9927991F6BE071E00E9444
:10116000730B080F191F83E00E941A08F80180838F
:101170008091ED028F5F8093ED028C2FCF911F91B4
:101180000F9108958091E902C80FF7CF1F93CF9375
:10119000DF93EC01162F83E00E941A088370909170
:1011A000E602811110C09F5F9093E6028091E602F3
:1011B000C80FD11D888187BD8091E902810FDF9121
:1011C000CF911F910895813011F49150EDCF82306D
:1011D00011F4905FE9CF9051E7CFFF920F931F93E7
:1011E000CF93DF938C01F62EC091E602D0E02196DA
:1011F000C80FD91F83E00E941A0888838091E602F5
:10120000080F111DF8018081E0910603F0E0EE0F58
:10121000FF1FEF5FFE4F0190F081E02D90E00995F8
:101220008091E9028F0DDF91CF911F910F91FF9077
:1012300008950F931F93CF93DF93EC01088110E083
:10124000011305C0DF91CF911F910F91089583E0A5
:101250000E941A08FE01E80FF11D8F709081892706
:1012600080831F5FEDCF0F931F93CF93DF93EC012C
:101270008C0101501F4F83E00E941A088993C01708
:10128000D107C9F7DF91CF911F910F910895CDB785
:10129000DEB7CA5AD1090FB6F894DEBF0FBECDBF74
:1012A00084E3EDE0F1E0DE01119601900D928A9564
:1012B000E1F780E1E1E4F1E0DE01AF57BF4F0190DB
:1012C0000D928A95E1F782E1E1E5F1E0DE01A15AB4
:1012D000BF4F01900D928A95E1F78CE0E3E6F1E0D3
:1012E000DE01A156BF4F01900D928A95E1F786E18C
:1012F000EFE6F1E0DE01D59601900D928A95E1F7D7
:1013000084E1E5E8F1E0DE01A55BBF4F01900D92BD
:101310008A95E1F78EE0E9E9F1E0DE01AF56BF4FD3
:1013200001900D928A95E1F780E1E7EAF1E0DE01B4
:10133000AF58BF4F01900D928A95E1F70E940408C3
:1013400080EC91E00E943309509A519A529A569A31
:10135000219A80E4809380008AE08093810083E476
:1013600084BD85B58D6085BD5898599A5A9810925C
:10137000CB0281E08093E9028093EC021092CD02CF
:101380001092D0021092E6021AE0B7E0BB2E0BE0FA
:1013900086E0A82E99E0F92E2CE0C22E34E0E32E50
:1013A00048E0D42E80E00E941A088093EB0281E08E
:1013B0000E941A088093F00282E00E941A0880932B
:1013C000CE029091F002911104C09091CB029093C3
:1013D000F002811104C08091CB028093CE028091F3
:1013E000CE02982F9370909306036091EB02E62F44
:1013F000E295E695E770E093CF02982F9F719F5F8B
:101400009093EF028295869587708093EA0280918F
:10141000ED028F5F8093ED0290E06F7170E06F5F7F
:101420007F4F0E94730B892B09F04BC02091CB0298
:10143000A22FB0E0A054BE4F8C91E150E73038F4B9
:10144000F0E0E659F34F8093E8020C94870B809309
:10145000E8026AE10E94530BE92FF0E0EE0FFF1F54
:1014600081E090E08C0F9D1FE80FF91F0190F08143
:10147000E02D72C08770E82FF0E0EE0FFF1F81E8CB
:1014800090E08C0F9D1FE80FF91F0190F081E02D77
:10149000622F80EC91E009958093CB029091EC0251
:1014A0009093E902E82FF0E0E054FE4F80818F3FF7
:1014B00041F497FF04C081E08093EC0202C09111D7
:1014C000FBCF8091ED026091EF020E94530B9111CE
:1014D00011C0E091EA02F0E0EE0FFF1F81E790E01B
:1014E0008C0F9D1FE80FF91F0190F081E02D80EC1B
:1014F00091E00995E091F002E770E0930703E15075
:10150000E73008F08DC0F0E0EF58F34F0C94870BF4
:101510006F2D0E94530BE92FF0E0EE0FFF1F8FE5B8
:1015200090E0A0CF6A2D0E94530BE92FF0E0EE0F60
:10153000FF1F8FE990E096CF602F0E94530BE92F99
:10154000F0E0EE0FFF1F81E090E08C0F9D1FE80F91
:10155000F91F04A8F5A9E02D622F80EC91E0099510
:101560008093CB028091EC028093E902AACF87BDE1
:101570008091CB029091EC02890F8093CB02A1CF96
:101580006B2D0E94530BE92FF0E0EE0FFF1F81E956
:1015900090E068CF612F0E94530BE92FF0E0EE0F2F
:1015A000FF1F8BE490E08C0F9D1FE80FF91F019047
:1015B000F081E02D622F80EC91E009958093CB02C1
:1015C0009091CD02911102C08F5FD7CF913011F46D
:1015D0008150D3CF923011F4805FCFCF933009F098
:1015E00070CF8051CACF589A5998E091F002E29595
:1015F000EF70E093EE02E150EF3008F052C0F0E0FF
:10160000E858F34F219A0C94870B5898599AEDCFCC
:101610008BB187608BB9E9CF8091CB0280FF02C08C
:101620005A98E3CF5A9AE1CF8BB18360F3CF8BB155
:101630008B25F0CFF0928100D092E502B3CEF092EC
:101640008100E092E502AECEF092810082E08093CC
:10165000E502A8CEF0928100A5CE10938100ECCFD8
:1016600010938100EECF10938100F0CF1093810092
:1016700099CE00938100E0CF00938100E2CF0093E8
:101680008100E4CF009381008DCEC0928100D4CF41
:10169000C0928100A092E50285CEC0928100E092C6
:1016A000E50221987FCE991B79E004C0991F961717
:1016B00008F0961B881F7A95C9F780950895AA1B94
:1016C000BB1B51E107C0AA1FBB1FA617B70710F02D
:1016D000A61BB70B881F991F5A95A9F7809590955F
:1016E000BC01CD01089597FB072E16F4009407D096
:1016F00077FD09D00E945F0B07FC05D03EF4909562
:1017000081959F4F0895709561957F4F0895EE0FD5
:10171000FF1F0590F491E02D0994CF92DF92EF9294
:10172000FF92CF93DF93CDB7DEB72A970FB6F89429
:10173000DEBF0FBECDBF89879A87A985BA852D9157
:101740003D914D915C9129833A834B835C83232B9C
:10175000242B252B41F424E239ED4BE557E0298376
:101760003A834B835C8369817A818B819C812DE1F3
:1017700033EF41E050E00E94050C69017A01A7EACD
:10178000B1E49B01AC010E94240C69837A838B83B2
:101790009C83ACEEB4EFA70196010E94320C9B0132
:1017A000AC0189819A81AB81BC81820F931FA41FF8
:1017B000B51FB7FF03C00197A109B048E985FA85B5
:1017C00080839183A283B3839F772A960FB6F89480
:1017D000DEBF0FBECDBFDF91CF91FF90EF90DF90C6
:1017E000CF9008950E948D0B089589E091E00E94AA
:1017F0008D0B0895B0E0A0E08093090190930A0159
:10180000A0930B01B0930C010895052E97FB1EF4D5
:1018100000940E941C0C57FD07D00E94370C07FC57
:1018200003D04EF40C941C0C5095409530952195A6
:101830003F4F4F4F5F4F08959095809570956195FC
:101840007F4F8F4F9F4F08950E94590CA59F900D79
:10185000B49F900DA49F800D911D11240895B7FF92
:101860000C94240C0E94240C821B930B0895A1E27B
:101870001A2EAA1BBB1BFD010DC0AA1FBB1FEE1F0A
:10188000FF1FA217B307E407F50720F0A21BB30B55
:10189000E40BF50B661F771F881F991F1A9469F7D1
:1018A00060957095809590959B01AC01BD01CF012D
:1018B0000895A29FB001B39FC001A39F700D811D29
:1018C0001124911DB29F700D811D1124911D089549
:1018D000F894FFCF3A0A880A920A9C0AB70AC00A0B
:1018E000CA0A120BF30A050B080B0C0B140B170B8F
:1018F0001A0B1F0B240B2A0B2D0B300B330B360B43
:0E190000390B3C0B3F0B420B450B480B4D0BBC
:10190E001153005F006B0077000100000083009C04
:10191E0000A300AC00B500C10031083D08490850D5
:10192E0008CD00CF00DA00E400EE00F80003010F4E
:10193E0001200134014B016508780859015D010051
:10194E0008650878086A016C01790182018F019A95
:10195E0001C601CE01D601E101EC0104028B080E95
:10196E000221023802530255027D0662029A066E69
:10197E00029E02D2020603130330033503530356AD
:10198E00039103A703AF03C503DC0340076A079463
:10199E0007B707E503DA071904EB079F084104555B
:1019AE00048304C608ED081909BA069704E80597DA
:0819BE0004BA062D0619090008
:00000001FF
