:100000000C9434000C9451000C9451000C94510049
:100010000C9451000C9451000C9451000C9451001C
:100020000C9451000C9451000C9451000C9451000C
:100030000C9451000C9451000C9451000C945100FC
:100040000C9451000C9451000C9451000C945100EC
:100050000C9451000C9451000C9451000C945100DC
:100060000C9451000C94510011241FBECFEFD4E02A
:10007000DEBFCDBF11E0A0E0B1E0E4EEF0E202C0EF
:1000800005900D92A83BB107D9F723E0A8EBB1E0AA
:1000900001C01D92A130B207E1F70E94940D0C94AB
:1000A00053100C940000CF93DF9300D000D000D009
:1000B000CDB7DEB78D839E83CB01BA0120E031E05E
:1000C00040E050E00E940C1069837A838B839C830C
:1000D0006F3F7F4F8F4F9F4F41F48FEF90E0A0E035
:1000E000B0E089839A83AB83BC83AD81BE81E98113
:1000F000FA81AE0FBF1F8C9126960FB6F894DEBF23
:100100000FBECDBFDF91CF9108951F93CF93DF93A3
:1001100000D000D000D0CDB7DEB78D839E83122FE4
:10012000CB01BA0120E031E040E050E00E940C1029
:1001300069837A838B839C836F3F7F4F8F4F9F4F61
:1001400041F48FEF90E0A0E0B0E089839A83AB8325
:10015000BC83AD81BE81E981FA81AE0FBF1F1C93C4
:1001600026960FB6F894DEBF0FBECDBFDF91CF91BC
:100170001F910895982F82958F70480F511D4295B9
:10018000407F9F70690F711D6F707727842F860FD6
:1001900008959C018091C801893008F088E002C070
:1001A000220F331F8A95E2F730938900209388004D
:1001B00008959C018091C801893008F088E002C050
:1001C000369527958A95E2F7309389002093880029
:1001D00008959C018091C801893008F088E0829FD1
:1001E000A001839F500D11245093890040938800F3
:1001F00008956091C801693008F068E070E06F5FB1
:100200007F4F0E94E40F70938900609388000895E7
:10021000CF93C62FE091D701E80FF92FF11D808110
:10022000E091BB01F0E0EE0FFF1FEE5FFE4F01908B
:10023000F081E02D90E0099580910C018C0FCF9119
:1002400008958091D70187BD80910C01860F089594
:100250009091D7019F5F9093D70180910C01860FF9
:1002600008959091D70191509093D70180910C01FE
:10027000860F0895E091D701E80FF92FF11D9081C5
:100280009F5F908380910C01860F0895E091D701C4
:10029000E80FF92FF11D90819150908380910C010E
:1002A000860F08950C940801E091D701E80FF92F0B
:1002B000F11D808187BD80910C01860F0895CF923A
:1002C000DF92EF92FF921F93CF93DF93182FD92FD6
:1002D000C62FC62ED12CF12CE12CB701A6010E940D
:1002E000530021E0280FB701A601812F9D2F0E9406
:1002F000850080910C018C0FDF91CF911F91FF90B1
:10030000EF90DF90CF900895CF92DF92EF92FF921F
:100310001F93CF93DF93182FD92FC62FC62ED12C22
:10032000F12CE12CB701A6010E9453002FEF280FFA
:10033000B701A601812F9D2F0E94850080910C019D
:100340008C0FDF91CF911F91FF90EF90DF90CF90B6
:100350000895CF92DF92EF92FF921F93CF93DF9396
:10036000182FD92FC62FC62ED12CF12CE12CB70176
:10037000A6010E945300282F220FB701A601812F4A
:100380009D2F0E94850080910C018C0FDF91CF91F1
:100390001F91FF90EF90DF90CF900895CF92DF9262
:1003A000EF92FF921F93CF93DF93182FD92FC62F71
:1003B000C62ED12CF12CE12CB701A6010E945300CE
:1003C000282F220F220FB701A601812F9D2F0E94F7
:1003D000850080910C018C0FDF91CF911F91FF90D0
:1003E000EF90DF90CF900895CF92DF92EF92FF923F
:1003F0001F93CF93DF93182FD92FC62FC62ED12C42
:10040000F12CE12CB701A6010E945300282F220FE6
:10041000220F220FB701A601812F9D2F0E94850078
:1004200080910C018C0FDF91CF911F91FF90EF9085
:10043000DF90CF9008951F93CF93DF93182FD92F7C
:10044000C62F41E0460F50E070E060E00E9453008C
:1004500081110AC04091D70150E070E060E0812F27
:100460009D2F0E945300C82F80910C018C0FDF91AB
:10047000CF911F910895CF93C62F41E0460F50E0D2
:1004800070E060E00E94530087FD03C08C0FCF91A5
:10049000089580910C01FACF1F93CF93DF93182F0B
:1004A000D92FC62F4FEF460F50E070E060E00E945A
:1004B000530087FD12C04C2F50E070E060E0812FA8
:1004C0009D2F0E945300282F41E04C0F50E070E018
:1004D00060E0812F9D2F0E94850080910C018C0F80
:1004E000DF91CF911F9108951F93CF93DF93182F22
:1004F000D92FC62F41E0460F50E070E060E00E9427
:100500005300482F50E070E060E0812F9D2F0E9443
:100510005300282F4C2F50E070E060E0812F9D2F7A
:100520000E94850080910C018C0FDF91CF911F916B
:10053000089580910C01860F089580910B0187FF2B
:1005400007C081E080930B0180910C01860F089514
:100550008FEFF8CF0C940801CF92DF92EF92FF92C9
:100560000F931F93CF93DF938C01D62FC62ED12CE0
:10057000F12CE12CB701A6014F5F5F4F6F4F7F4F0A
:100580000E945300C82FB701A601415051096109CB
:100590007109C8010E945300C80FC7BD80910C01AA
:1005A0008D0FDF91CF911F910F91FF90EF90DF9012
:1005B000CF900895CF92DF92EF92FF921F93CF9347
:1005C000DF93182FD92FC62FC62ED12CF12CE12C5A
:1005D0002FEFB701A6010E948500B701A6014F5F6A
:1005E0005F4F6F4F7F4F2FEF812F9D2F0E94850010
:1005F00082E08C0FDF91CF911F91FF90EF90DF9001
:10060000CF900895CF92DF92EF92FF920F931F93B6
:10061000CF93DF93D82FC92F062FC62ED12CF12CC4
:10062000E12CB701A6010E945300182F87FD16C0C8
:10063000B701A6014F5F5F4F6F4F7F4F282F8D2F60
:100640009C2F0E948500B701A60141505109610904
:100650007109212F8D2F9C2F0E94850080910C0104
:10066000800FDF91CF911F910F91FF90EF90DF905E
:10067000CF900895CF92DF92EF92FF921F93CF9386
:10068000DF93182FD92FC62FC62ED12CF12CE12C99
:10069000B701A601415051096109710920E00E948A
:1006A0008500B701A6014F5F5F4F6F4F7F4F20E07E
:1006B000812F9D2F0E94850080910C018C0FDF916E
:1006C000CF911F91FF90EF90DF90CF900895CF933F
:1006D000DF93C62FD0910B01462F50E070E060E011
:1006E0000E945300D7FF0CC0982F9370913089F46B
:1006F00090930B0180910C018C0FDF91CF910895A5
:10070000DD23A9F0982F937091F48FEF80930B0164
:10071000F1CF9FEF82958F70899F802D11248823C0
:1007200041F080930C0181E08093D802E3CF91E007
:10073000F1CFD0930C01F7CFE091D701E80FF92F5B
:10074000F11D90819F5F908381E0860F0895E09175
:10075000D701E80FF92FF11D90819150908381E02E
:10076000860F0895CF93C62FE091D701E80FF92F98
:10077000F11D8081E091BB01F0E0EE0FFF1FEE5F05
:10078000FE4F0190F081E02D90E0099581E08C0F03
:10079000CF910895E091D701E80FF92FF11D8081E5
:1007A00087BD81E0860F0895862FE0910A01E3312D
:1007B0004CF4EF5FE0930A010E2E000CFF0BE351A7
:1007C000FD4F60838F5F08959C01862FE0910A01A1
:1007D000E7FD12C0A091D701A20FB32FB11D9C91CC
:1007E000992339F00E2E000CFF0BE351FD4F808151
:1007F0000895E150E0930A018F5F0895CF92DF9250
:10080000EF92FF920F931F93CF93DF93182FD92F5F
:10081000C62FC62ED12CF12CE12CB701A6014F5FBB
:100820005F4F6F4F7F4F0E945300082FB701A60103
:100830004150510961097109812F9D2F0E94530078
:10084000E091BB01F0E0EE0FFF1FEE5FFE4F019065
:10085000F081E02D202F280F3327331FC901099580
:1008600080910C018C0FDF91CF911F910F91FF9020
:10087000EF90DF90CF9008950C94AC02809101012D
:10088000982F990F990F990F9827892F8295869500
:1008900087709827892F880F8927809301010895F1
:1008A000CF92DF92EF92FF921F93CF93DF93D82FD7
:1008B000C92F162FC62ED12CF12CE12CB701A60181
:1008C0004F5F5F4F6F4F7F4F0E945300181674F4B5
:1008D000B701A6018D2F9C2F0E94530021E0280F05
:1008E000B701A6018D2F9C2F0E94850080910C01DD
:1008F000810FDF91CF911F91FF90EF90DF90CF900C
:100900000895CF92DF92EF92FF921F93CF93DF93E0
:10091000182FD92FC62FC62ED12CF12CE12CB701C0
:10092000A6014F5F5F4F6F4F7F4F0E945300181615
:1009300074F40E943E046AE00E94D80F943038F4A8
:100940002FEFB701A601812F9D2F0E948500809176
:100950000C018C0FDF91CF911F91FF90EF90DF90F2
:10096000CF900895CF92DF92EF92FF921F93CF9393
:10097000DF93182FD92FC62FC62ED12CF12CE12CA6
:10098000B701A6014F5F5F4F6F4F7F4F0E9453002B
:1009900087FF07C021E8B701A601812F9D2F0E9484
:1009A000850080910C018C0FDF91CF911F91FF90FA
:1009B000EF90DF90CF900895CF92DF92EF92FF9269
:1009C0001F93CF93DF93D82FC92F162FC62ED12C6C
:1009D000F12CE12CB701A6014F5F5F4F6F4F7F4FA6
:1009E0000E94530081111AC0B701A601415051095C
:1009F000610971098D2F9C2F0E945300181674F401
:100A00000E943E046AE00E94D80F943038F421E03E
:100A1000B701A6018D2F9C2F0E94850080910C01AB
:100A2000810FDF91CF911F91FF90EF90DF90CF90DA
:100A300008958F929F92AF92BF92EF92FF920F9381
:100A40001F93CF93DF93D82FC92FF62E062F10E0D8
:100A5000A8014F5F5F4F052E000C660B770B0E94BD
:100A60005300E82EA8014E5F5F4F052E000C660B69
:100A7000770B8D2F9C2F0E945300182F8F2C912CB9
:100A8000B12CA12CB501A4014E0D511D611D711D8C
:100A90008D2F9C2F0E945300282FB501A401410FD8
:100AA000511D611D711D8D2F9C2F0E94850083E0BB
:100AB0008F0DDF91CF911F910F91FF90EF90BF901D
:100AC000AF909F908F9008954F925F926F927F9218
:100AD0008F929F92AF92BF92EF92FF920F931F93CC
:100AE000CF93DF93D82FC92FF62E062F10E0A80141
:100AF0004F5F5F4F052E000C660B770B0E94530073
:100B0000E82EA8014E5F5F4F052E000C660B770B99
:100B10008D2F9C2F0E9453008F2C912CB12CA12C37
:100B200024013501480E511C611C711CB301A20146
:100B30008D2F9C2F0E945300182FB501A4014E0D3C
:100B4000511D611D711D8D2F9C2F0E945300212F5F
:100B5000280FB301A2018D2F9C2F0E94850083E0F6
:100B60008F0DDF91CF911F910F91FF90EF90BF906C
:100B7000AF909F908F907F906F905F904F9008956F
:100B80004F925F926F927F928F929F92AF92BF929D
:100B9000EF92FF920F931F93CF93DF93D82FC92F1C
:100BA000F62E062F10E0A8014F5F5F4F052E000CB8
:100BB000660B770B0E945300E82EA8014E5F5F4F33
:100BC000052E000C660B770B8D2F9C2F0E94530077
:100BD0008F2C912CB12CA12C24013501480E511CD5
:100BE000611C711CB301A2018D2F9C2F0E94530028
:100BF000182FB501A4014E0D511D611D711D8D2FC2
:100C00009C2F0E945300212F281BB301A2018D2F7E
:100C10009C2F0E94850083E08F0DDF91CF911F9163
:100C20000F91FF90EF90BF90AF909F908F907F902B
:100C30006F905F904F900895CF93C62F462F50E04E
:100C40004F5F5F4F052E000C660B770B0E94530021
:100C50008C0FCF910895FF920F931F93CF93DF9343
:100C6000F82E092F162FC62FD0E0AE014E5F5F4F32
:100C7000052E000C660B770B0E94530090E0B0E04D
:100C8000A0E0AC01BD01410F511D611D711D8F2DF3
:100C9000902F0E945300811110C0AE014F5F5F4F33
:100CA000052E000C660B770B8F2D902FDF91CF91C7
:100CB0001F910F91FF900C94530083E0810FDF91FF
:100CC000CF911F910F91FF900895FF920F931F9363
:100CD000CF93DF93F82E092F162FC62FD0E0AE0149
:100CE0004E5F5F4F052E000C660B770B0E94530082
:100CF00090E0B0E0A0E0AC01BD01410F511D611DCD
:100D0000711D8F2D902F0E945300882381F0AE011A
:100D10004F5F5F4F052E000C660B770B8F2D902FCA
:100D2000DF91CF911F910F91FF900C94530083E0BE
:100D3000810FDF91CF911F910F91FF900895AF9296
:100D4000BF92CF92DF92EF92FF920F931F93CF93B8
:100D5000DF93D82FC92FB62E062F10E0A8014E5FC3
:100D60005F4F052E000C660B770B0E94530090E03E
:100D7000B0E0A0E06C017D01CB0CD11CE11CF11CAA
:100D8000B701A6018D2F9C2F0E945300AA24AA947C
:100D9000A80E2A2DB701A6018D2F9C2F0E94850039
:100DA000A11015C0A8014F5F5F4F052E000C660B08
:100DB000770B8D2F9C2FDF91CF911F910F91FF907B
:100DC000EF90DF90CF90BF90AF900C94530083E0F2
:100DD0008B0DDF91CF911F910F91FF90EF90DF90DE
:100DE000CF90BF90AF90089583E0860F0895BF9293
:100DF000CF92DF92EF92FF920F931F93CF93DF93E7
:100E0000182FD92FC62FE62EF12CA7014F5F5F4F69
:100E1000052E000C660B770B0E945300B82EA7011D
:100E20004E5F5F4F052E000C660B770B812F9D2FB9
:100E30000E945300CC2ED12CF12CE12CB701A6013D
:100E4000480F511D611D711D812F9D2F0E94530060
:100E5000082FB701A6014B0D511D611D711D812F7A
:100E60009D2F0E945300081761F086E08C0FDF91E0
:100E7000CF911F910F91FF90EF90DF90CF90BF9097
:100E8000089583E0F3CFCF93C62F462F50E04F5FF6
:100E90005F4F052E000C660B770B0E945300E0910C
:100EA000BB01F0E0EE0FFF1FEE5FFE4F0190F081FF
:100EB000E02D90E0099583E08C0FCF910895CF93BA
:100EC000C62F462F50E04E5F5F4F052E000C660B7D
:100ED000770B0E94530087BD83E08C0FCF9108955C
:100EE000862F9091BA01911104C091E09093BA01BC
:100EF0000895913019F41092BA010895923011F4C6
:100F000093E0F4CF9330A1F792E0F0CFCF93C62FC8
:100F1000E091D701E80FF92FF11D8081E091BB012D
:100F2000F0E0EE0FFF1FEE5FFE4F0190F081E02D2D
:100F300090E009958C2FCF910895E091D701E80FAB
:100F4000F92FF11D808187BD862F08950F931F9380
:100F5000CF938C01C62F9091B9018091D70150E0B9
:100F600040E061E070E0992381F050E040E06FEFF5
:100F70007FEF913051F041E050E0923021F093301A
:100F800041F44FEF5FEF70E060E00E94BA008093A1
:100F9000D701E091D701E00FF12FF11D8081811180
:100FA0000CC08091BA01811104C081E08093BA0124
:100FB00004C0813039F41092BA018C2FCF911F9167
:100FC0000F910895823011F483E0F0CF8330A9F7B8
:100FD00082E0ECCF0F931F93CF938C01C62F90919B
:100FE000B9018091D70150E040E06FEF7FEF992386
:100FF00081F050E040E061E070E0913051F04FEF5F
:101000005FEF923021F0933041F441E050E070E026
:1010100060E00E94BA008093D701E091D701E00F11
:10102000F12FF11D808181110CC08091BA018111D5
:1010300004C081E08093BA0104C0813039F4109279
:10104000BA018C2FCF911F910F910895823011F426
:1010500083E0F0CF8330A9F782E0ECCFFF920F93CB
:101060001F93CF93DF938C01D62FC091B90180914C
:10107000D70194E1F92EF801E80FF11D9081992331
:10108000D9F050E040E061E070E0CC2381F050E026
:1010900040E06FEF7FEFC13051F041E050E0C230EF
:1010A00021F0C33031F44FEF5FEF70E060E00E9459
:1010B000BA00FA94F110DFCF8093D7018D2FDF9122
:1010C000CF911F910F91FF900895CF92DF92EF92F1
:1010D000FF920F931F93CF93DF93EC01162FC090D5
:1010E000D701FC01EC0DF11D0081002379F0D12C1A
:1010F000F12CE12C81E0C81AD108E108F108B70110
:10110000A601CE010E9453008823F1F08091BA011C
:10111000811104C081E08093BA0104C0813061F480
:101120001092BA01812FDF91CF911F910F91FF9003
:10113000EF90DF90CF900895823011F483E0EBCFF1
:10114000833081F782E0E7CF202FB701A601CE01DF
:101150000E948500E7CF262F8091B8018F5F809392
:10116000B8016CE30E94D80F911105C087B5809536
:1011700087BD822F089580910C01280FFACF262F6A
:10118000862F67E00E94D80F943011F188F49230D6
:10119000C9F09330D1F0913081F0219A89E08093A9
:1011A000810088E08093C80180910C01820F08952E
:1011B000953089F4219A8CE002C0219A89E08093CD
:1011C0008100F2CF219A8AE0EACF219A8AE0F7CF14
:1011D000219A8BE0F4CF2198E7CF7F928F929F9254
:1011E000AF92BF92CF92DF92EF92FF920F931F9335
:1011F000CF93DF93D82FC92F762EC62ED12CF12C6A
:10120000E12C4601570181E0881A9108A108B10834
:10121000B501A4018D2F0E945300082F8FEFC81A2B
:10122000D80AE80AF80AB701A6018D2F9C2F0E9460
:101230005300182F202F2095B501A4018D2F9C2F2E
:101240000E948500212F2095B701A6018D2F9C2F8C
:101250000E94850080910C01870DDF91CF911F9135
:101260000F91FF90EF90DF90CF90BF90AF909F9045
:101270008F907F900895AF92BF92CF92DF92EF92BE
:10128000FF920F931F93CF93DF939C01A090D00107
:1012900080589F4FA0FC71C03093CF012093CE01A6
:1012A0009093CD018093CC01E090CE01F090CF01DE
:1012B000D7018C91B09000010B2D10E0F701E00FE9
:1012C000F11F9081DF0111972C914FEF480F2417E8
:1012D00009F45CC061E050E0211101C060E0262FFC
:1012E000352FD0E0C0E05181451355C02196DF0174
:1012F00050975C91451355C021965089451357C0AE
:101300002196DF0151975C91581357C02196DF0158
:101310001F975C91581357C021965785581359C091
:101320002196518958135BC02196C090CC01D09072
:10133000CD010C0D1D1D911158C0D7011296EC91D5
:10134000129711966C91611101C061E070E0C901C2
:101350000E94F80F262FE11101C0E1E06E2F70E02E
:10136000CE010E94F80F260FF8012083D8018C913E
:10137000481708F06DC04C936BC09093CF018093D9
:10138000CE013093CD012093CC018ECF30E020E010
:10139000C1E0D0E0A8CF552309F4A9CF2F5F3F4F7C
:1013A000A6CF552309F4A9CF2F5F3F4FA6CF5523D2
:1013B00009F4A7CF2F5F3F4FA4CF552309F4A7CF40
:1013C0002F5F3F4FA4CF552309F4A7CF2F5F3F4F87
:1013D000A4CF552309F4A5CF2F5F3F4FA2CF5523AC
:1013E00009F4A3CF2F5F3F4FA0CF941778F5DF010B
:1013F00011976C91A62FA90FBB27BB1F61816A0FA4
:101400007B2F711DDF0150978C91680F711D8089B2
:10141000860F972F911D11976C91860F911D129633
:101420006C91680F792F711D8785680F711D8189F7
:10143000860F972F911DB9016F5F7F4F0E94F80FA4
:10144000F7018381860FD8018C9390CFF801108229
:1014500081E08B0D8F3668F480930001DF91CF918E
:101460001F910F91FF90EF90DF90CF90BF90AF90C2
:10147000089581E180930001D092CF01C092CE0106
:10148000F092CD01E092CC0181E0A826A092D0019B
:10149000E5CFCF93DF93DC012C91E091CB01EF5F9F
:1014A000EF70E093CB018E2F90E030E1E39FF001ED
:1014B0001124EA0FFB1F01968F70992734E0880FE3
:1014C000991F3A95E1F7A80FB91F91E030E04FEF6F
:1014D000EF0182818138E0F084E05181513808F0D9
:1014E000826031965881513808F08160B90102C09C
:1014F000759567958A95E2F760FF0CC011964C933D
:1015000011979F5F1196903119F7DF91CF91089550
:1015100080E0E3CF11961C921197F3CF9F92AF9288
:10152000BF92CF92DF92EF92FF920F931F93CF93D0
:10153000DF93FC01F080B180E090CA01EC01C0585B
:10154000DF4FE0FE05C09C2F8D2FEF01E92FF82F14
:101550008F0160966F0180E6C80ED11CAA24A39467
:1015600081E8982EF801808989938F15C0F0FE01DB
:10157000319790820F5F1F4F0C151D0599F781E081
:10158000E826E092CA01DF91CF911F910F91FF9061
:10159000EF90DF90CF90BF90AF909F9008958823F9
:1015A00029F0FE0131978F5F8083E4CF808188230B
:1015B00011F08F1590F0F80180A1882311F08F159C
:1015C00060F0F8018785882311F08F1530F0F8015D
:1015D0008189882379F28F1568F60E943E046AE0BB
:1015E0000E94D80F9B1530F6FE013197A082C2CF22
:1015F000CF93FC019091C901AF0140585F4F90FF1C
:1016000005C0642F852FAF01E62FF82F21E130E0D0
:10161000CFEFDF0161896170319650968C915097C0
:101620008170860F52967C9152977170870F119638
:101630007C9111977170870F91967C919197717041
:10164000870F7C917170870F71817170870F778D13
:101650007170870F71A17170870F782F761BDA0177
:10166000A20FB31F733011F0833061F4CC932F5F5E
:101670003F4F2F36310569F681E098279093C901D5
:10168000CF9108951C92F3CFCF93C62F8091B901CB
:1016900041E050E0882321F0813069F44FEF5FEFA3
:1016A00070E060E08091D7010E94BA008093D7017A
:1016B0008C2FCF91089550E040E061E070E08230DF
:1016C00089F38330A9F750E040E06FEF7FEFEACF76
:1016D000CF93C62F8091B9014FEF5FEF882321F0A0
:1016E000813069F441E050E070E060E08091D70122
:1016F0000E94BA008093D7018C2FCF91089550E0BB
:1017000040E06FEF7FEF823089F38330A9F750E03C
:1017100040E061E070E0EACFCF93FC01C62F40913A
:10172000D701DC01A40FB11D8C91811117C08091EC
:10173000BA01811104C081E08093BA0104C08130F4
:1017400029F41092BA018C2FCF910895823011F4B0
:1017500083E0F2CF8330B9F782E0EECF50E070E063
:1017600060E020E0CF010E948500EDCF0F931F9332
:10177000CF93DF938C01D62F8091B801C0910C01DB
:10178000C60F8C30B9F4462F50E070E060E0C8011D
:101790000E945300282FC1E0CD0F4C2F50E070E085
:1017A00060E0C8010E948500DF3F21F48DE0809356
:1017B000B801C0E08C2FDF91CF911F910F91089558
:1017C00080910C01860F08959091D70191509093CC
:1017D000D70181E0860F08959091D7019F5F909384
:1017E000D70181E0860F0895ECE7F0E080818F77E4
:1017F0008083808180648083808180628083EAE747
:10180000F0E0808184608083808182608083808139
:101810008160808380818068808317B818B80895BC
:10182000982F80917A0087FF25C0983018F5809115
:101830007C00887F892B80937C0080917A00806176
:1018400080937A0080917A00806480937A008091FE
:101850007A0086FDFCCF8091790080917A008064C7
:1018600080937A0080E197E220917A0026FF04C0FD
:101870000197D1F780E0089580917A00806180938C
:101880007A00809179000895CF93C62F83E00E945B
:10189000100C8093D70180910C018C0FCF9108958B
:1018A000CF93C62F82E00E94100C8093D7018091C5
:1018B0000C018C0FCF91089582E00E94100C909142
:1018C0000C01890F08950F931F93CF93C62F00919A
:1018D000D701080F192F111D83E00E94100CF80189
:1018E000808380910C018C0FCF911F910F910895EF
:1018F0001F93CF93DF93182FD92FC62F82E00E941A
:10190000100C282F4C2F50E070E060E0812F9D2FAD
:101910000E94850080910C018C0FDF91CF911F9167
:1019200008951F93CF93DF93182FD92FC62F83E0ED
:101930000E94100C282F4C2F50E070E060E0812FA7
:101940009D2F0E94850080910C018C0FDF91CF911B
:101950001F9108950F931F93CF93C62F0091D70126
:10196000080F192F111D83E00E94100CF8018083CD
:1019700081E08C0FCF911F910F9108951F93CF930A
:10198000DF93182FD92FC62F8091B8018D30E1F445
:101990008091BC018F5F8093BC0183E00E94100C9A
:1019A000282F8091BC014C2F50E070E060E0480F80
:1019B000511D611D711D812F9D2F0E9485008C2F4F
:1019C000DF91CF911F91089580910C01C80FF7CF3F
:1019D0000F931F93CF938C01C62F83E00E94100CAE
:1019E000982F93708091D70150E040E061E070E063
:1019F000992371F050E040E06FEF7FEF913041F0BC
:101A000041E050E0923011F04FEF5FEF70E060E0A6
:101A10000E94BA008093D701E091D701E00FF12F27
:101A2000F11D808187BD80910C018C0FCF911F919A
:101A30000F9108950F931F93CF93DF938C01D62FAF
:101A400083E00E94100C282FC091D7014C2F50E04A
:101A500070E060E04F5F5F4F6F4F7F4FC8010E94A3
:101A60008500F801EC0FF11D8081E091BB01F0E0F1
:101A7000EE0FFF1FEE5FFE4F0190F081E02D90E032
:101A8000099580910C018D0FDF91CF911F910F91DE
:101A900008951F93CF93DF93EC0110E0888118170E
:101AA00020F0DF91CF911F91089583E00E94100CE8
:101AB000FE01E80FF11D8F709081892780831F5FE1
:101AC000EDCF0F931F93CF93DF93EC018C01139510
:101AD00083E00E94100C8993C017D107C9F7DF91EA
:101AE000CF911F910F9108950F931F93CF9300E112
:101AF00010E0C0E083E00E94100C9C2FC827E7ECA8
:101B0000F0E03197F1F700C000000150110991F7A2
:101B1000891301C0C5EA80910101C827C093010162
:101B2000CF911F910F910895CDB7DEB7CA5AD10951
:101B30000FB6F894DEBF0FBECDBF0E94740D84E3D4
:101B4000EDE0F1E0DE01119601900D928A95E1F74A
:101B500080E1E1E4F1E0DE01AF57BF4F01900D926B
:101B60008A95E1F782E1E1E5F1E0DE01A15ABF4F9C
:101B700001900D928A95E1F78CE0E3E6F1E0DE0159
:101B8000A156BF4F01900D928A95E1F786E1EFE6ED
:101B9000F1E0DE01D59601900D928A95E1F784E19E
:101BA000E5E8F1E0DE01A55BBF4F01900D928A955B
:101BB000E1F78EE0E9E9F1E0DE01AF56BF4F0190B9
:101BC0000D928A95E1F780E1E7EAF1E0DE01AF5896
:101BD000BF4F01900D928A95E1F70E94F40B88EDBA
:101BE00091E00E94610D509A519A529A569A219A08
:101BF00080E4809380008AE08093810083E484BD48
:101C000085B58D6085BD5898599A5A981092C10132
:101C100081E080930C0180930B011092BA01109225
:101C2000B9011AE0B7E0BB2E0BE086E0A82E99E0E0
:101C3000F92E2CE0C22E34E0E32E48E0D42E809121
:101C4000D1019091D2019C012F5F3F4F3093D2017F
:101C50002093D1018F709927892BA1F480E00E94F5
:101C6000100C8093D30181E00E94100C8093D4016A
:101C700082E00E94100C8093D50183E00E94100C3A
:101C80008093D6016091D3016093C0019091D401FB
:101C90009093BE018091D5018093BF01911104C042
:101CA0009091C1019093BE01811104C08091C10146
:101CB0008093BF018091BF01982F93709093BB01D7
:101CC000E62FE295E695E770E093C701982F9F71A4
:101CD0009F5F9093C5018295869587708093C6011A
:101CE0008091BC018F5F8093BC0190E06F7170E0C8
:101CF0006F5F7F4F0E94F80F892B09F05DC0209124
:101D0000C101A22FB0E0A852BE4F8C91E150E73044
:101D100038F4F0E0EB5AFF4E8093C2010C942B1084
:101D20008093C2016AE10E94D80FE92FF0E0EE0F24
:101D3000FF1F81E090E08C0F9D1FE80FF91F0190BD
:101D4000F081E02D622F88ED91E009958093C1012B
:101D500080910B0180930C0127C08770E82FF0E081
:101D6000EE0FFF1F81E890E08C0F9D1FE80FF91F19
:101D70000190F081E02D622F88ED91E0099580932C
:101D8000C10190910B0190930C01E82FF0E0E85213
:101D9000FE4F80818F3F41F497FF04C081E0809324
:101DA0000B0102C09111FBCF8091D80281118CC030
:101DB00080910B0180930C018091BC016091C50161
:101DC0000E94D80F911111C0E091C601F0E0EE0F12
:101DD000FF1F81E790E08C0F9D1FE80FF91F019016
:101DE000F081E02D88ED91E00995E091BE01E7706A
:101DF000E093C401E150E73008F069C0F0E0E45A34
:101E0000FF4E0C942B106F2D0E94D80FE92FF0E09D
:101E1000EE0FFF1F8FE590E08ECF6A2D0E94D80F46
:101E2000E92FF0E0EE0FFF1F8FE990E084CF602FE5
:101E30000E94D80FE92FF0E0EE0FFF1F81E090E045
:101E40008C0F9D1FE80FF91F04A8F5A9E02D7ACF8C
:101E500087BD8091C10190910B01890F8093C101D1
:101E6000A3CF6B2D0E94D80FE92FF0E0EE0FFF1FDC
:101E700081E990E060CF612F0E94D80FE92FF0E058
:101E8000EE0FFF1F8BE490E08C0F9D1FE80FF91FF2
:101E90000190F081E02D622F88ED91E0099580930B
:101EA000C1019091BA01911102C08F5FD7CF9130DB
:101EB00011F48150D3CF923011F4805FCFCF9330A3
:101EC00009F072CF8051CACF1092D80275CF8FB768
:101ED000F8945A9808C08FB7F8945A9A04C08FB7EC
:101EE000F894589A59988FBFE091BE01E295EF702F
:101EF000E093C301E150EF3018F5F0E0ED59FF4EEB
:101F0000219A0C942B108FB7F8945898599AEBCFCC
:101F10009FB7F8948BB187608BB99FBFE5CF8FB720
:101F2000F8949091C10190FFD8CFD3CF9FB7F89488
:101F30008BB18360F1CF9FB7F8948BB18B25ECCF39
:101F400021987DCEF0928100D092C80178CEF09297
:101F50008100E092C80173CEF092810082E080930C
:101F6000C8016DCEF09281006ACE10938100ECCF53
:101F700010938100EECF10938100F0CF1093810079
:101F80005ECE00938100E0CF00938100E2CF00930A
:101F90008100E4CF0093810052CEC0928100D4CF63
:101FA000C0928100A092C8014ACEC0928100D1CFD8
:101FB000991B79E004C0991F961708F0961B881F9B
:101FC0007A95C9F780950895AA1BBB1B51E107C0FC
:101FD000AA1FBB1FA617B70710F0A61BB70B881FB9
:101FE000991F5A95A9F780959095BC01CD01089548
:101FF00097FB072E16F4009407D077FD09D00E94B6
:10200000E40F07FC05D03EF4909581959F4F08950D
:10201000709561957F4F0895052E97FB1EF40094EF
:102020000E94231057FD07D00E94311007FC03D0F7
:102030004EF40C94231050954095309521953F4FC8
:102040004F4F5F4F089590958095709561957F4FA4
:102050008F4F9F4F0895EE0FFF1F0590F491E02DD5
:102060000994A1E21A2EAA1BBB1BFD010DC0AA1FD9
:10207000BB1FEE1FFF1FA217B307E407F50720F0F1
:10208000A21BB30BE40BF50B661F771F881F991F6C
:102090001A9469F760957095809590959B01AC01B5
:1020A000BD01CF010895F894FFCFAD0E030F0D0FC2
:1020B000170F280F310F3B0F6B0F6F0F830F880F18
:1020C0008F0F960F9B0FA20FA70FAC0FB20FB50F7C
:1020D000B80FBB0FBE0FC10FC40FC70FCA0FCD0F74
:0420E000D00FD50F39
:1020E40011A5C900D900E900F900FF010108012187
:1020F40001280131013A014601440C500C5C0C6387
:102104000C520154015F018401A901CE01F4011BA9
:10211400023B024C027402780C910C99029D02E07D
:102124000B780C910CAA02AC02DA0202033A0367A0
:1021340003EC0BE40B9C03A703B203CA03AA0CD45D
:1021440003E403FE033C0450048104B204DC0419D8
:10215400056405C0051C062B0665069F06F406F7F4
:102164000643075F07700786079D07A607EA07442B
:102174000B680B2E088C0B6508B60BBE0CAB08BFA6
:1021840008ED08E80C1A0D490D8E0A3B09490A3B73
:08219400098E0AF80A490D004A
:00000001FF
